:100000000C942A000C9434000C9434000C943400AA
:100010000C9434000C9434000C9434000C94340090
:100020000C9434000C9434000C9434000C94340080
:100030000C9434000C9434000C9434000C94340070
:100040000C9434000C9434000C9434000C94340060
:100050000C94340011241FBECFE5D8E0DEBFCDBF25
:100060000E9436000C94D1000C9400008FE087BBF6
:10007000AAE029E130E072E068E045E05FE0A8BB7B
:1000800088E893E1F9013197F1F70197D9F788E80A
:1000900093E1F9013197F1F70197D9F788E893E1F6
:1000A000F9013197F1F70197D9F788E893E1F90160
:1000B0003197F1F70197D9F778BB88E893E1F90117
:1000C0003197F1F70197D9F788E893E1F901319772
:1000D000F1F70197D9F788E893E1F9013197F1F742
:1000E0000197D9F788E893E1F9013197F1F7019782
:1000F000D9F768BB88E893E1F9013197F1F70197E7
:10010000D9F788E893E1F9013197F1F70197D9F729
:1001100088E893E1F9013197F1F70197D9F788E879
:1001200093E1F9013197F1F70197D9F748BB88E8D6
:1001300093E1F9013197F1F70197D9F788E893E155
:10014000F9013197F1F70197D9F788E893E1F901BF
:100150003197F1F70197D9F788E893E1F9013197E1
:10016000F1F70197D9F758BB88E893E1F901319786
:10017000F1F70197D9F788E893E1F9013197F1F7A1
:100180000197D9F788E893E1F9013197F1F70197E1
:10019000D9F788E893E1F9013197F1F70197D9F799
:0601A0006ECFF894FFCFC2
:00000001FF
